15:12:26.982281 IP 192.168.2.11 > 192.168.2.12:  ip-proto-0 8
        0x0000:  000b 9755 8664 0023 544b 9841 0800 4500
        0x0010:  001c 0000 4000 4000 b57a c0a8 020b c0a8
        0x0020:  020c 2000 5865 0000 6400
15:22:36.745806 IP 192.168.2.11 > 192.168.2.12:  ip-proto-0 8
        0x0000:  000b 9755 8664 0023 544b 9841 0800 4500
        0x0010:  001c 0000 4000 4000 b57a c0a8 020b c0a8
        0x0020:  020c 2000 5865 0000 6400

15:25:36.871587 IP 192.168.2.11 > 192.168.2.12: GREv0, key=0x6400, length 8: gre-proto-0x5865
        0x0000:  000b 9755 8664 0023 544b 9841 0800 4500
        0x0010:  001c 0000 4000 402f b54b c0a8 020b c0a8
        0x0020:  020c 2000 5865 0000 6400
15:33:16.724369 IP 192.168.2.11 > 192.168.2.12: GREv0, key=0x6400, length 8: [|ether]
        0x0000:  000b 9755 8664 0023 544b 9841 0800 4500
        0x0010:  001c 0000 4000 402f b54b c0a8 020b c0a8
        0x0020:  020c 2000 6558 0000 6400
